S01700004763634170706C69636174696F6E312E737265635B
S11300000C943B010C9458010C9458010C94580125
S11300100C9458010C9458010C9458010C945801F8
S11300200C9458010C9458010C9458010C945801E8
S11300300C9458010C9458010C9458010C945801D8
S11300400C9458010C9458010C9458010C945801C8
S11300500C9458010C9458010C9458010C945801B8
S11300600C9458010C9458010C9458010C945801A8
S11300700C9458010C9458010C94580105A84CCDCB
S1130080B2D44EB93836A9020C50B9918688083CCE
S1130090A6AAAA2ABE000000803F0664EC1B3C040A
S11300A0BC163E3BE5B93CC93C37C29E5A3D66048A
S11300B098083EEA69AAAA3E000000803F0763420E
S11300C036B79BD8A71A39685618AEBAAB558C1DEB
S11300D03CB7CC5763BD6DEDFD753EF6177231BF6D
S11300E0000000803F08000000BE922449123EAB8D
S11300F0AAAA2ABECDCCCC4C3E00000080BEABAA3E
S1130100AAAA3E00000000BF000000803F000000DB
S11301100000084178D3BB4387D1133D190E3CC37B
S1130120BD4282AD2B3E68EC8276BED98FE1A93EFA
S11301304C80EFFFBE01C4FF7F3F000000000000C1
S11301404E414E494E495459494E46CDCCCC3D0AB8
S1130150D7233C17B7D13877CC2B329595E6241F9B
S1130160B14F0A000020410000C84200401C462054
S1130170BCBE4CCA1B0E5AAEC59D7400407A10F327
S11301805A00A0724E18090010A5D4E80000E876C1
S113019048170000E40B54020000CA9A3B00000018
S11301A0E1F505000080969800000040420F000031
S11301B000A08601000000102700000000E80300F2
S11301C00000006400000000000A000000000001BC
S11301D000000000002C76D888DC674F0823DFC1BC
S11301E0DFAE59E1B1B796E5E3E453C63AE6519977
S11301F07696E8E6C28426EB898C9B62ED407C6FA0
S1130200FCEFBC9C9F40F2BAA56FA5F490055A2A56
S1130210F75C936B6CF9676DC11BFCE0E40D47FE62
S1130220F520E6B500D0ED902E0300943577050057
S113023080841E080000204E0A000000C80C3333DE
S113024033330F986E12831141EF8D2114893BE6ED
S11302505516CFFEE6DB18D1844B381BF77C1D9076
S11302601DA4BBE424203284725E228100C9F124DF
S1130270ECA1E53D270011241FBECFEFD8E0DEBF7F
S1130280CDBF13E0A0E0B1E0E2E5F5E302C00590E4
S11302900D92AC3EB107D9F723E0ACEEB3E001C058
S11302A01D92A23FB207E1F70E942F0D0C94A71AEA
S11302B00C940000CF93DF93CDB7DEB7C054D109BF
S11302C00FB6F894DEBF0FBECDBF8BE290E02BE2F9
S11302D030E0F90120812460FC01208380E090E07B
S11302E0A0E0B0E489839A83AB83BC832BEA3AEA27
S11302F04AE250E469817A818B819C810E94AF1328
S1130300DC01CB018DA39EA3AFA3B8A789819A81F9
S1130310AB81BC819C01AD01BC01CD010E94DF1108
S1130320DC01CB0189A79AA7ABA7BCA720E030E0EA
S113033040E85FE36DA17EA18FA198A50E944B12B6
S113034088231CF481E08DA7B2C020E03FEF4FE783
S113035057E469A57AA58BA59CA50E94AA13181633
S11303600CF07BC020E030E04AE754E469817A81F4
S11303708B819C810E945512DC01CB018EA79FA723
S1130380A8ABB9AB20E030E04AEF54E46EA57FA5FA
S113039088A999A90E94AF13DC01CB018AAB9BAB5E
S11303A0ACABBDAB20E030E040E85FE36AA97BA9D9
S11303B08CA99DA90E944B1288232CF481E090E023
S11303C09FAB8EAB3FC020E03FEF4FE757E46AA9F5
S11303D07BA98CA99DA90E94AA1318164CF520E0AC
S11303E030E040E251E46EA57FA588A999A90E9456
S11303F0AF13DC01CB01BC01CD010E94C712DC01AB
S1130400CB019FAB8EAB0FC088EC90E099AF88AF67
S113041088AD99AD0197F1F799AF88AF8EA99FA9DF
S113042001979FAB8EAB8EA99FA9892B69F73FC01B
S11304306AA97BA98CA99DA90E94C712DC01CB01E2
S11304409FAB8EAB8EA99FA99BAF8AAF8AAD9BADA4
S11304500197F1F79BAF8AAF2AC020E030E04FE765
S113046053E46DA17EA18FA198A50E94AA1318162A
S1130470ACF469A57AA58BA59CA50E94C712DC01E2
S1130480CB019DAF8CAF8CAD9DAD9FAF8EAF8EADCC
S11304909FAD0197F1F79FAF8EAF1CC06DA17EA1F8
S11304A08FA198A50E94C712DC01CB018DA72DA5B1
S11304B0CE01805C9F4FFC012083CE01805C9F4F66
S11304C0FC018081282F2A95F1F7CE01805C9F4F93
S11304D0FC0120838BE290E02BE230E0F9012081E3
S11304E02B7FFC01208380E090E0A0E0B0E48D83CA
S11304F09E83AF83B8872BEA3AEA4AE250E46D81DF
S11305007E818F8198850E94AF13DC01CB0189879E
S11305109A87AB87BC878D819E81AF81B8859C010A
S1130520AD01BC01CD010E94DF11DC01CB018D873F
S11305309E87AF87B88B20E030E040E85FE36985B1
S11305407A858B859C850E944B1288231CF481E05C
S1130550898BB2C020E03FEF4FE757E46D857E857D
S11305608F8598890E94AA1318160CF07BC020E08E
S113057030E04AE754E46D817E818F8198850E9442
S11305805512DC01CB018A8B9B8BAC8BBD8B20E09D
S113059030E04AEF54E46A897B898C899D890E9402
S11305A0AF13DC01CB018E8B9F8BA88FB98F20E01A
S11305B030E040E85FE36E897F89888D998D0E94E1
S11305C04B1288232CF481E090E09B8F8A8F3FC0EC
S11305D020E03FEF4FE757E46E897F89888D998D3E
S11305E00E94AA1318164CF520E030E040E251E4D2
S11305F06A897B898C899D890E94AF13DC01CB01B8
S1130600BC01CD010E94C712DC01CB019B8F8A8FF4
S11306100FC088EC90E09D8F8C8F8C8D9D8D019701
S1130620F1F79D8F8C8F8A8D9B8D01979B8F8A8F7D
S11306308A8D9B8D892B69F73FC06E897F89888D50
S1130640998D0E94C712DC01CB019B8F8A8F8A8D02
S11306509B8D9F8F8E8F8E8D9F8D0197F1F79F8F2E
S11306608E8F2AC020E030E04FE753E469857A8515
S11306708B859C850E94AA131816ACF46D857E8523
S11306808F8598890E94C712DC01CB0199A388A3A6
S113069088A199A19BA38AA38AA19BA10197F1F7A1
S11306A09BA38AA30FC069857A858B859C850E944C
S11306B0C712DC01CB01898B89898CA38CA18A9513
S11306C0F1F78CA30000C05CDF4F0FB6F894DEBFD7
S11306D00FBECDBFDF91CF910895CF93DF9300D0AC
S11306E0CDB7DEB789836A838BE290E02BE230E0FA
S11306F0F9012081277EFC0120838A81813049F41D
S11307008BE290E02BE230E0F90120812860FC01CB
S113071020838A81823049F48BE290E02BE230E03E
S1130720F90120812061FC0120838BE290E02BE21F
S113073030E0F90120812E7FFC0120838BE290E0E0
S11307402BE230E0F90120812D7FFC01208388E237
S113075090E02981FC0120830E945A0100000F903F
S11307600F90DF91CF910895CF93DF9300D0CDB751
S1130770DEB789836A838BE290E02BE230E0F901F3
S11307802081277EFC0120838A81813049F48BE219
S113079090E02BE230E0F90120812860FC01208305
S11307A08A81823049F48BE290E02BE230E0F90157
S11307B020812061FC0120838BE290E02BE230E079
S11307C0F90120812160FC0120838BE290E02BE27F
S11307D030E0F90120812D7FFC01208388E290E044
S11307E02981FC0120830E945A0100000F900F9080
S11307F0DF91CF910895CF93DF93CDB7DEB72E97D6
S11308000FB6F894DEBF0FBECDBF87E290E02FEFA6
S1130810FC0120838AE290E02AE230E0F9012081A1
S11308202F61FC01208380E090E0A8E4B2E4898396
S11308309A83AB83BC8320E030E04AEF54E46981BF
S11308407A818B819C810E94AF13DC01CB018D8363
S11308509E83AF83B88720E030E040E85FE36D819A
S11308607E818F8198850E944B1288232CF481E02D
S113087090E09A8789873FC020E03FEF4FE757E435
S11308806D817E818F8198850E94AA1318164CF57C
S113089020E030E040E251E469817A818B819C81DF
S11308A00E94AF13DC01CB01BC01CD010E94C71231
S11308B0DC01CB019A8789870FC088EC90E09C8784
S11308C08B878B859C850197F1F79C878B8789851E
S11308D09A8501979A87898789859A85892B69F7EB
S11308E014C06D817E818F8198850E94C712DC01BE
S11308F0CB019A87898789859A859E878D878D857F
S11309009E850197F1F79E878D8761E08FE30E94B2
S11309106D0362E08FE30E946D0361E080EC0E944E
S11309206D0362E080EC0E946D0300002E960FB60A
S1130930F894DEBF0FBECDBFDF91CF910895CF9362
S1130940DF9300D000D0CDB7DEB78B836C838B816F
S11309508093ED038C818093EC038C81803410F4BC
S113096081E001C082E089838C81803418F08C811D
S1130970805401C08C818A838B81886B69810E9439
S11309806D038A81806469810E946D0300000F9069
S11309900F900F900F90DF91CF910895CF93DF9335
S11309A000D01F92CDB7DEB7198223C060E08981E1
S11309B00E949F041A8207C061E080E00E94B40391
S11309C08A818F5F8A838A818034B0F360E489816D
S11309D00E949F041B8207C062E080E00E94B4036F
S11309E08B818F5F8B838B818034B0F389818F5FA0
S11309F0898389818830D0F260E080E00E949F047E
S1130A0000000F900F900F90DF91CF910895CF9336
S1130A10DF9300D000D01F92CDB7DEB78D838D81D8
S1130A20803208F456C08D818F3708F052C080910F
S1130A30EC03803410F481E001C082E089838D816D
S1130A40882F90E09C0120523109C901880F991F19
S1130A50880F991F820F931F9C838B831A8221C056
S1130A608091EC03803439F482E089838091ED0332
S1130A7060E40E949F048A81282F30E08B819C814E
S1130A80820F931F8C5D9D4FFC01808169810E94C0
S1130A90B4038091EC038F5F8093EC038A818F5FB2
S1130AA08A838A818530E0F28091EC03803439F4C2
S1130AB082E089838091ED0360E40E949F04698150
S1130AC080E00E94B4038091EC038F5F8093EC0379
S1130AD001C000000F900F900F900F900F90DF91C6
S1130AE0CF910895CF93DF9300D0CDB7DEB79A832B
S1130AF0898319C08091EC03883750F08091ED030D
S1130B008F5F8093ED038091ED0360E00E949F046A
S1130B1089819A819C012F5F3F4F3A832983FC018D
S1130B2080810E94070589819A81FC018081882344
S1130B3009F700000F900F90DF91CF910895CF93A4
S1130B40DF93CDB7DEB781E290E02FE0FC01208394
S1130B5082E290E02FEFFC01208384E290E024E223
S1130B6030E0F90120812E7FFC01208385E290E0B2
S1130B7025E230E0F90120812160FC01208300009E
S1130B80DF91CF9108950F931F93CF93DF93CDB748
S1130B90DEB7C756D1090FB6F894DEBF0FBECDBF7E
S1130BA019820BC582E290E022E230E0F901208153
S1130BB02F60622F2981422F50E021E030E002C0F3
S1130BC0220F331F4A95E2F720952623FC01208348
S1130BD080E090E0A0E2B1E48E8B9F8BA88FB98F68
S1130BE02BEA3AEA4AE250E46E897F89888D998D2E
S1130BF00E94AF13DC01CB018A8F9B8FAC8FBD8F1A
S1130C008E899F89A88DB98D9C01AD01BC01CD0150
S1130C100E94DF11DC01CB018E8F9F8FA8A3B9A3A3
S1130C2020E030E040E85FE36A8D7B8D8C8D9D8D04
S1130C300E944B1288231CF481E08AA3B2C020E0F6
S1130C403FEF4FE757E46E8D7F8D88A199A10E94F5
S1130C50AA1318160CF07BC020E030E04AE754E4F5
S1130C606E897F89888D998D0E945512DC01CB0194
S1130C708BA39CA3ADA3BEA320E030E04AEF54E4D1
S1130C806BA17CA18DA19EA10E94AF13DC01CB01BD
S1130C908FA398A7A9A7BAA720E030E040E85FE3B4
S1130CA06FA178A589A59AA50E944B1288232CF4DC
S1130CB081E090E09CA78BA73FC020E03FEF4FE787
S1130CC057E46FA178A589A59AA50E94AA131816BE
S1130CD04CF520E030E040E251E46BA17CA18DA111
S1130CE09EA10E94AF13DC01CB01BC01CD010E9487
S1130CF0C712DC01CB019CA78BA70FC088EC90E046
S1130D009EA78DA78DA59EA50197F1F79EA78DA7F8
S1130D108BA59CA501979CA78BA78BA59CA5892B2C
S1130D2069F73FC06FA178A589A59AA50E94C7124B
S1130D30DC01CB019CA78BA78BA59CA598AB8FA7A7
S1130D408FA598A90197F1F798AB8FA72AC020E047
S1130D5030E04FE753E46A8D7B8D8C8D9D8D0E942E
S1130D60AA131816ACF46E8D7F8D88A199A10E94E8
S1130D70C712DC01CB019AAB89AB89A99AA99CABB8
S1130D808BAB8BA99CA90197F1F79CAB8BAB0FC0E4
S1130D906A8D7B8D8C8D9D8D0E94C712DC01CB01E9
S1130DA08AA38AA18DAB8DA98A95F1F78DAB80E2D8
S1130DB090E0FC018081882F90E080719927892B35
S1130DC009F08CC080E090E0A0EAB1E48A839B83C0
S1130DD0AC83BD8320E030E04AEF54E46A817B8138
S1130DE08C819D810E94AF13DC01CB018EAB9FAB44
S1130DF0A8AFB9AF20E030E040E85FE36EA97FA977
S1130E0088AD99AD0E944B1288232CF481E090E0C8
S1130E109BAF8AAF3FC020E03FEF4FE757E46EA996
S1130E207FA988AD99AD0E94AA1318164CF520E04D
S1130E3030E040E251E46A817B818C819D810E9493
S1130E40AF13DC01CB01BC01CD010E94C712DC0150
S1130E50CB019BAF8AAF0FC088EC90E09DAF8CAF05
S1130E608CAD9DAD0197F1F79DAF8CAF8AAD9BAD75
S1130E7001979BAF8AAF8AAD9BAD892B69F714C0EC
S1130E806EA97FA988AD99AD0E94C712DC01CB0180
S1130E909BAF8AAF8AAD9BAD9FAF8EAF8EAD9FAD3A
S1130EA00197F1F79FAF8EAF000080E290E0FC0164
S1130EB08081882F90E080719927892BB1F38981F3
S1130EC0282F30E0C901880F991F880F991F820FBE
S1130ED0931F80509F4FFC01808174C380E290E097
S1130EE0FC018081882F90E080729927892B09F07A
S1130EF0D2C080E090E0A0EAB1E48A8B9B8BAC8BFB
S1130F00BD8B8E01005C1F4F20E030E04AEF54E4BB
S1130F106A897B898C899D890E94AF13DC01CB018E
S1130F20F80180839183A283B383CE01805C9F4FB9
S1130F3020E030E040E85FE3FC0160817181828160
S1130F4093810E944B1288234CF4CE018C5B9F4FFB
S1130F5021E030E0FC013183208369C0CE01805C54
S1130F609F4F20E03FEF4FE757E4FC016081718120
S1130F70828193810E94AA1318160CF046C020E0C7
S1130F8030E040E251E46A897B898C899D890E9422
S1130F90AF13DC01CB018E010C5B1F4FBC01CD01F3
S1130FA00E94C712DC01CB01F8019183808324C025
S1130FB0CE018A5B9F4F28EC30E0FC013183208313
S1130FC0CE018A5B9F4FFC01808191810197F1F7EB
S1130FD09E012A5B3F4FF90191838083CE018C5B94
S1130FE09F4F9E012C5B3F4FF9012081318121509D
S1130FF03109FC0131832083CE018C5B9F4FFC01BE
S113100080819181892BA1F62CC08E010C5B1F4F2E
S1131010CE01805C9F4FFC0160817181828193814C
S11310200E94C712DC01CB01F80191838083CE01B9
S1131030885B9F4F9E012C5B3F4FF90120813181DA
S1131040FC0131832083CE01885B9F4FFC018081AA
S113105091810197F1F79E01285B3F4FF90191833C
S11310608083000080E290E0FC018081882F90E082
S113107080729927892BB1F38981282F30E0C90127
S1131080880F991F880F991F820F931F8F5F9E4FA0
S1131090FC01808197C280E290E0FC018081882F6E
S11310A090E080749927892B09F0D2C080E090E009
S11310B0A0EAB1E48E879F87A88BB98B8E01065B6B
S11310C01F4F20E030E04AEF54E46E857F85888925
S11310D099890E94AF13DC01CB01F80180839183CD
S11310E0A283B383CE01865B9F4F20E030E040E8CB
S11310F05FE3FC0160817181828193810E944B12C4
S113110088234CF4CE01825B9F4F21E030E0FC0148
S11311103183208369C0CE01865B9F4F20E03FEF7F
S11311204FE757E4FC0160817181828193810E94C1
S1131130AA1318160CF046C020E030E040E251E457
S11311406E857F85888999890E94AF13DC01CB0164
S11311508E01025B1F4FBC01CD010E94C712DC014E
S1131160CB01F8019183808324C0CE01805B9F4F23
S113117028EC30E0FC0131832083CE01805B9F4F5B
S1131180FC01808191810197F1F79E01205B3F4F23
S1131190F90191838083CE01825B9F4F9E01225B84
S11311A03F4FF9012081318121503109FC01318304
S11311B02083CE01825B9F4FFC0180819181892B2A
S11311C0A1F62CC08E01025B1F4FCE01865B9F4FA0
S11311D0FC0160817181828193810E94C712DC01CC
S11311E0CB01F80191838083CE018E5A9F4F9E01DB
S11311F0225B3F4FF90120813181FC01318320833F
S1131200CE018E5A9F4FFC01808191810197F1F7A5
S11312109E012E5A3F4FF90191838083000080E2A2
S113122090E0FC018081882F90E080749927892BBD
S1131230B1F38981282F30E0C901880F991F880FE5
S1131240991F820F931F8E5F9E4FFC018081BAC14C
S113125080E290E0FC01808188230CF4CEC080E021
S113126090E0A0EAB1E48A879B87AC87BD878E01B2
S11312700C5A1F4F20E030E04AEF54E46A857B8526
S11312808C859D850E94AF13DC01CB01F80180831E
S11312909183A283B383CE018C5A9F4F20E030E028
S11312A040E85FE3FC0160817181828193810E9447
S11312B04B1288234CF4CE01885A9F4F21E030E032
S11312C0FC013183208369C0CE018C5A9F4F20E0FA
S11312D03FEF4FE757E4FC01608171818281938184
S11312E00E94AA1318160CF046C020E030E040E239
S11312F051E46A857B858C859D850E94AF13DC0152
S1131300CB018E01085A1F4FBC01CD010E94C712A8
S1131310DC01CB01F8019183808324C0CE01865A7D
S11313209F4F28EC30E0FC0131832083CE01865AA4
S11313309F4FFC01808191810197F1F79E01265A0C
S11313403F4FF90191838083CE01885A9F4F9E01BC
S1131350285A3F4FF9012081318121503109FC0184
S113136031832083CE01885A9F4FFC018081918173
S1131370892BA1F62CC08E01085A1F4FCE018C5A1E
S11313809F4FFC0160817181828193810E94C71209
S1131390DC01CB01F80191838083CE01845A9F4FF5
S11313A09E01285A3F4FF90120813181FC0131838C
S11313B02083CE01845A9F4FFC0180819181019743
S11313C0F1F79E01245A3F4FF90191838083000075
S11313D080E290E0FC0180818823D4F78981282F62
S11313E030E0C901880F991F880F991F820F931F3E
S11313F08D5F9E4FFC018081E5C083E290E0FC019B
S11314008081882F90E081709927892B09F0D2C0C0
S113141080E090E0A0EAB1E48E839F83A887B98737
S11314208E01025A1F4F20E030E04AEF54E46E81EF
S11314307F81888599850E94AF13DC01CB01F80177
S113144080839183A283B383CE01825A9F4F20E08D
S113145030E040E85FE3FC01608171818281938127
S11314600E944B1288234CF4CE018E599F4F21E0E9
S113147030E0FC013183208369C0CE01825A9F4F42
S113148020E03FEF4FE757E4FC01608171818281E6
S113149093810E94AA1318160CF046C020E030E095
S11314A040E251E46E817F81888599850E94AF1363
S11314B0DC01CB018E010E591F4FBC01CD010E94EE
S11314C0C712DC01CB01F8019183808324C0CE01D3
S11314D08C599F4F28EC30E0FC0131832083CE01EE
S11314E08C599F4FFC01808191810197F1F79E01F6
S11314F02C593F4FF90191838083CE018E599F4F20
S11315009E012E593F4FF90120813181215031092B
S1131510FC0131832083CE018E599F4FFC018081D1
S11315209181892BA1F62CC08E010E591F4FCE013B
S1131530825A9F4FFC0160817181828193810E9454
S1131540C712DC01CB01F80191838083CE018A5953
S11315509F4F9E012E593F4FF90120813181FC019B
S113156031832083CE018A599F4FFC018081918170
S11315700197F1F79E012A593F4FF9019183808326
S1131580000083E290E0FC018081882F90E081706C
S11315909927892BB1F38981282F30E0C901880F5D
S11315A0991F880F991F820F931F8C5F9E4FFC0118
S11315B0808108C089818F5F89838981843008F4A0
S11315C0F1CA80E0C959DF4F0FB6F894DEBF0FBEF1
S11315D0CDBFDF91CF911F910F910895CF93DF93EA
S11315E0CDB7DEB78091EE039091EF03FC018081CB
S11315F0DF91CF910895CF93DF93CDB7DEB780917C
S1131600EE039091EF039C012F5F3F4F3093EF0364
S11316102093EE03FC018081DF91CF910895CF9355
S1131620DF93CDB7DEB764970FB6F894DEBF0FBE75
S1131630CDBF0E94EE0A803378F00E94EE0A8A330E
S113164058F48091EE039091EF036EEE73E00E94E4
S11316508C16DC01CB0116C10E94EE0A8832A9F473
S11316600E94FB0A0E94C20CDC01CB0189839A838D
S1131670AB83BC830E94EE0A893211F40E94FB0AF8
S113168089819A81AB81BC81FDC00E94EE0A8D32B2
S113169041F40E94FB0A0E940F0BDC01CB01B058FD
S11316A0F1C08091EE039091EF0344E050E064E1D7
S11316B071E00E941318892BA1F58091EE0390919B
S11316C0EF0304969093EF038093EE030E94C20C01
S11316D0DC01CB018D839E83AF83B8870E94EE0A21
S11316E0893211F40E94FB0A2BED3FE049E450E4F7
S11316F06D817E818F8198850E94AF13DC01CB01BF
S113170020E030E044E353E4BC01CD010E945512D3
S1131710DC01CB01BC01CD010E946C14DC01CB01C6
S1131720B1C08091EE039091EF0344E050E069E191
S113173071E00E941318892BA1F58091EE0390911A
S1131740EF0304969093EF038093EE030E94C20C80
S1131750DC01CB0189879A87AB87BC870E94EE0A9C
S1131760893211F40E94FB0A2BED3FE049E450E476
S113177069857A858B859C850E94AF13DC01CB013A
S113178020E030E044E353E4BC01CD010E94551253
S1131790DC01CB01BC01CD010E945012DC01CB0164
S11317A071C08091EE039091EF0344E050E06EE14C
S11317B071E00E941318892BA1F58091EE0390919A
S11317C0EF0304969093EF038093EE030E94C20C00
S11317D0DC01CB018D879E87AF87B88B0E94EE0A10
S11317E0893211F40E94FB0A2BED3FE049E450E4F6
S11317F06D857E858F8598890E94AF13DC01CB01AE
S113180020E030E044E353E4BC01CD010E945512D2
S1131810DC01CB01BC01CD010E94BA14DC01CB0177
S113182031C08091EE039091EF0345E050E063E214
S113183071E00E941318892B11F58091EE039091A9
S1131840EF0305969093EF038093EE030E94C20C7E
S1131850DC01CB01898B9A8BAB8BBC8B0E94EE0A8B
S1131860893211F40E94FB0A89899A89AB89BC895F
S1131870BC01CD010E947A14DC01CB0103C080E0DD
S113188090E0DC01BC01CD0164960FB6F894DEBF94
S11318900FBECDBFDF91CF910895CF93DF9300D0DA
S11318A000D0CDB7DEB70E940F0BDC01CB018983DA
S11318B09A83AB83BC834AC00E94EE0A8A32A9F49D
S11318C00E94FB0A0E940F0BDC01CB019C01AD01BD
S11318D069817A818B819C810E94AF13DC01CB01E9
S11318E089839A83AB83BC8331C00E94EE0A8F3212
S11318F0A9F40E94FB0A0E940F0BDC01CB019C019E
S1131900AD0169817A818B819C810E945512DC0131
S1131910CB0189839A83AB83BC8318C00E94EE0AEF
S11319208E35A1F40E94FB0A0E940F0B9B01AC01AF
S113193089819A81AB81BC81BC01CD010E941C14B8
S1131940DC01CB0189839A83AB83BC830E94EE0ABA
S11319508A3209F4B1CF0E94EE0A8F3209F4ACCF77
S11319600E94EE0A8E3509F4A7CF89819A81AB8152
S1131970BC81BC01CD010F900F900F900F90DF91AF
S1131980CF910895CF93DF9300D000D0CDB7DEB7C9
S11319900E944D0CDC01CB0189839A83AB83BC8309
S11319A031C00E94EE0A8B32A9F40E94FB0A0E9405
S11319B04D0CDC01CB019C01AD0169817A818B81E5
S11319C09C810E94DF11DC01CB0189839A83AB8364
S11319D0BC8318C00E94EE0A8D32A1F40E94FB0A57
S11319E00E944D0CDC01CB019C01AD0169817A811F
S11319F08B819C810E94DE11DC01CB0189839A8357
S1131A00AB83BC830E94EE0A8B3259F20E94EE0A29
S1131A108D3239F289819A81AB81BC81BC01CD01BF
S1131A200F900F900F900F90DF91CF910895CF9367
S1131A30DF9300D0CDB7DEB79A83898389819A81F9
S1131A409093EF038093EE030E94C20CDC01CB0160
S1131A50BC01CD010F900F90DF91CF910895CF92EB
S1131A60DF92EF92FF920F931F93CF93DF93CDB743
S1131A70DEB7CF57D1090FB6F894DEBF0FBECDBF86
S1131A8085E590E020E8FC01208385E590E020E8EE
S1131A90FC0120830E94FB030E949F050E94CE0448
S1131AA06FE083E00E949F0489E291E00E94720546
S1131AB06EE185E00E949F0482E391E00E9472053A
S1131AC080E090E0AAE7B4E48EA39FA3A8A7B9A7F7
S1131AD020E030E04AEF54E46EA17FA188A599A5E7
S1131AE00E94AF13DC01CB018AA79BA7ACA7BDA7BB
S1131AF020E030E040E85FE36AA57BA58CA59DA5C6
S1131B000E944B1288232CF481E090E09FA78EA7BB
S1131B103FC020E03FEF4FE757E46AA57BA58CA5C3
S1131B209DA50E94AA1318164CF520E030E040E26F
S1131B3051E46EA17FA188A599A50E94AF13DC0191
S1131B40CB01BC01CD010E94C712DC01CB019FA7D0
S1131B508EA70FC088EC90E099AB88AB88A999A9AF
S1131B600197F1F799AB88AB8EA59FA501979FA725
S1131B708EA78EA59FA5892B69F714C06AA57BA59E
S1131B808CA59DA50E94C712DC01CB019FA78EA73F
S1131B908EA59FA59BAB8AAB8AA99BA90197F1F758
S1131BA09BAB8AAB0E94CE0419821DAA1CAA2AE30D
S1131BB0CE01C696FC01322F11923A95E9F71A82AA
S1131BC01B821C821D821E821F82188619861A8619
S1131BD01B861C861D861E861F86188A198A1A8AE9
S1131BE01B8A1C8A0E94C3058D8B8D898823D1F39F
S1131BF08D89833559F481E08F8364E680E00E9407
S1131C009F048DE391E00E947205D7C38F818130D8
S1131C1009F054C01F8264E680E00E949F0485E4BA
S1131C2091E00E9472058D898133A9F481E0898352
S1131C300E94CE0460E080E00E949F0489E491E069
S1131C400E94720560E082E00E949F0487E591E0B3
S1131C500E947205B2C38D898233A9F482E089831C
S1131C600E94CE0460E080E00E949F048AE691E036
S1131C700E94720560E082E00E949F0489E791E07F
S1131C800E9472059AC38D898333C1F483E08983EA
S1131C9018861A821CAA0E94CE0460E080E00E948A
S1131CA09F048EE891E00E94720560E082E00E9449
S1131CB09F048BE991E00E9472057FC38981882388
S1131CC009F0A6C08D89833429F41A821CAA0E94C3
S1131CD0CE0488CF8D898434E1F48A81882309F481
S1131CE081CF8A8181508A838A81882F90E09E01E6
S1131CF02C5C3F4F820F931FFC0110820E94CE0484
S1131D0060E080E00E949F04CE01C4960E947205A8
S1131D1069CF8D898D3361F5CE01C4960E94170D6C
S1131D20DC01CB018B839C83AD83BE8360E083E0C5
S1131D300E949F0485EA91E00E94720560E084E0BD
S1131D400E949F049E0120593F4F8B819C81AD814D
S1131D50BE81890123E048E0BC01CD010E946C16DC
S1131D60CE0180599F4F0E9472051A821CAA3ACF55
S1131D708D89813431F59E0120593F4F8B819C819F
S1131D80AD81BE81890122E044E0BC01CD010E9405
S1131D906C169E0120593F4FCE01C496B9010E9492
S1131DA0FF17CE01C4960E940A188A830E94CE04AB
S1131DB060E080E00E949F04CE01C4960E947205F8
S1131DC011CF8A81873308F00DCF8A8191E0980F73
S1131DD09A83882F90E09E012C5C3F4F820F931FC3
S1131DE02D89FC0120838A81882F90E09E012C5C40
S1131DF03F4F820F931FFC0110820E94CE0460E0CB
S1131E0080E00E949F04CE01C4960E947205EACE2F
S1131E108981813009F077C08D898133B1F4CE0195
S1131E20C4969C01F90101900020E9F7CF010197C4
S1131E30821B930B9E012C5C3F4F820F931F28E261
S1131E4030E0FC01318320834DC08D898233B1F4AD
S1131E50CE01C4969C01F90101900020E9F7CF015D
S1131E600197821B930B9E012C5C3F4F820F931FA3
S1131E7029E230E0FC013183208334C08D8983332F
S1131E80B1F4CE01C4969C01F90101900020E9F758
S1131E90CF010197821B930B9E012C5C3F4F820F55
S1131EA0931F2EE530E0FC01318320831BC08D8914
S1131EB08433C1F4CE01C4969C01F9010190002041
S1131EC0E9F7CF010197821B930B9E012C5C3F4FD6
S1131ED0820F931F26E0E3E2F1E0DC0101900D9212
S1131EE02A95E1F7CE01C4960E940A188A831982C2
S1131EF00E94CE0460E080E00E949F04CE01C4965C
S1131F000E9472056FCE8981823009F064C08D8988
S1131F108133C9F4CE01C4969C01F90101900020DB
S1131F20E9F7CF010197821B930B9E012C5C3F4F75
S1131F30820F931F25E0E4E1F1E0DC0101900D92B2
S1131F402A95E1F737C08D898233C9F4CE01C4964E
S1131F509C01F90101900020E9F7CF010197821B50
S1131F60930B9E012C5C3F4F820F931F25E0E9E108
S1131F70F1E0DC0101900D922A95E1F71BC08D89F7
S1131F808333C1F4CE01C4969C01F9010190002071
S1131F90E9F7CF010197821B930B9E012C5C3F4F05
S1131FA0820F931F25E0EEE1F1E0DC0101900D9238
S1131FB02A95E1F7CE01C4960E940A188A831982F1
S1131FC00E94CE0460E080E00E949F04CE01C4968B
S1131FD00E94720507CE8981833009F003CE8D8972
S1131FE0833431F419821A821CAA0E94CE04FACDD9
S1131FF08D898434F9F48A81882309F4F3CD8A81A4
S113200081508A838A81882F90E09E012C5C3F4F07
S1132010820F931FFC01108288858E5F66E30E9405
S11320209F04CE01C4960E9472058AEB91E00E943F
S11320307205D8CD8D898D3309F08DC188858823AB
S1132040B9F4CE01C4960E94DA17DC01CB0189876A
S11320509A87AB87BC8781E088871A821CAA60E0D4
S113206083E00E949F048DEB91E00E947205BACD3B
S113207088858130B9F4CE01C4960E94DA17DC0158
S1132080CB018D879E87AF87B88B82E088871A82C1
S11320901CAA60E084E00E949F0487EC91E00E9407
S11320A07205A0CD8885823009F04BC1CE01C4965B
S11320B00E94DA17DC01CB01898B9A8BAB8BBC8B2A
S11320C00E94CE0420E030E0A90169857A858B85E1
S11320D09C850E944B12882329F481ED91E00E9493
S11320E072052CC12D853E854F8558896D857E8569
S11320F08F8598890E94AF13DC01CB016C017D01AF
S113210020E030E040E850E469857A858B859C8541
S11321100E94AF13DC01CB0129893A894B895C8980
S1132120BC01CD010E94AF13DC01CB019C01AD01C8
S1132130C701B6010E94DE11DC01CB018E8B9F8B9F
S1132140A88FB98F20E030E0A9016E897F89888D3E
S1132150998D0E944B1288232CF485EE91E00E9405
S11321607205ECC020E030E0A9016E897F89888D7A
S1132170998D0E944B12882309F042C08D859E855B
S1132180AF85B8896C017D01F7FAF094F7F8F09403
S113219089859A85AB85BC859C01AD01BC01CD01C7
S11321A00E94DF11DC01CB019C01AD01C701B60126
S11321B00E945512DC01CB018A8F9B8FAC8FBD8F9F
S11321C083EF91E00E94720560E082E00E949F0428
S11321D08FEF91E00E9472059E0120593F4F8A8D36
S11321E09B8DAC8DBD8D890122E046E0BC01CD0103
S11321F00E946C16CE0180599F4F0E9472059EC0AA
S11322008E899F89A88DB98DBC01CD010E947A1455
S1132210DC01CB012D853E854F855889BC01CD015C
S11322200E94DE11DC01CB016C017D0189859A8558
S1132230AB85BC859C01AD01BC01CD010E94DF11C1
S1132240DC01CB019C01AD01C701B6010E9455120E
S1132250DC01CB018E8F9F8FA8A3B9A38D859E85AA
S1132260AF85B8896C017D01F7FAF094F7F8F09422
S11322708E899F89A88DB98DBC01CD010E947A14E5
S1132280DC01CB019C01AD01C701B6010E94DE1146
S1132290DC01CB016C017D0189859A85AB85BC8508
S11322A09C01AD01BC01CD010E94DF11DC01CB0119
S11322B09C01AD01C701B6010E945512DC01CB019E
S11322C08AA39BA3ACA3BDA384E092E00E94720501
S11322D060E082E00E949F0488E192E00E9472051F
S11322E09E0120593F4F8E8D9F8DA8A1B9A18901D0
S11322F022E046E0BC01CD010E946C16CE0180595B
S11323009F4F0E94720560E084E00E949F048EE16A
S113231092E00E9472059E0120593F4F8AA19BA121
S1132320ACA1BDA1890122E046E0BC01CD010E941F
S11323306C16CE0180599F4F0E94720583E08887F6
S113234051CC8885833009F04DCC19821A821CAA9D
S11323500E94CE0447CC8D89803318F08D898A334E
S113236038F08D898E3221F08D898D3209F03ACC86
S11323708A818A3008F036CC8A8191E0980F9A835A
S1132380882F90E09E012C5C3F4F820F931F2D8974
S1132390FC0120838A81882F90E09E012C5C3F4FB2
S11323A0820F931FFC01108288858E5F66E30E9472
S11323B09F04CE01C4960E94720514CC5058BB27CA
S11323C0AA270E94F6110C945C130E94231338F080
S11323D00E942A1320F039F49F3F19F426F40C9438
S11323E020130EF4E095E7FB0C941A13E92F0E94D6
S11323F0811358F3BA17620773078407950720F00F
S113240079F4A6F50C94A3130EF4E0950B2EBA2FD1
S1132410A02D0B01B90190010C01CA01A0011124E6
S1132420FF27591B99F0593F50F4503E68F11A1692
S1132430F040A22F232F342F4427585FF3CF469523
S113244037952795A795F0405395C9F77EF41F1645
S1132450BA0B620B730B840BBAF09150A1F0FF0F0F
S1132460BB1F661F771F881FC2F70EC0BA0F621FFB
S1132470731F841F48F4879577956795B795F795EB
S11324809E3F08F0B0CF9395880F08F09927EE0F80
S11324909795879508950E94F61208F481E00895AF
S11324A00E943313E3950C946D130E9469120C94EB
S11324B05C130E942A1358F00E94231340F029F45D
S11324C05F3F29F00C941A1351110C94A4130C942B
S11324D020130E94811368F39923B1F3552391F3D8
S11324E0951B550BBB27AA2762177307840738F07F
S11324F09F5F5F4F220F331F441FAA1FA9F335D0DC
S11325000E2E3AF0E0E832D091505040E695001C8F
S1132510CAF72BD0FE2F29D0660F771F881FBB1F49
S1132520261737074807AB07B0E809F0BB0B802D27
S1132530BF01FF2793585F4F3AF09E3F510578F053
S11325400C941A130C94A4135F3FE4F3983ED4F351
S1132550869577956795B795F7959F5FC9F7880F27
S1132560911D9695879597F90895E1E0660F771F79
S1132570881FBB1F621773078407BA0720F0621B0A
S1132580730B840BBA0BEE1F88F7E09508950E9435
S1132590891388F09F5798F0B92F9927B751B0F055
S11325A0E1F0660F771F881F991F1AF0BA95C9F7D3
S11325B014C0B13091F00E94A313B1E008950C94BB
S11325C0A313672F782F8827B85F39F0B93FCCF36E
S11325D0869577956795B395D9F73EF49095809550
S11325E0709561957F4F8F4F9F4F0895990F000805
S11325F0550FAA0BE0E8FEEF16161706E807F907D1
S1132600C0F012161306E407F50798F0621B730B6B
S1132610840B950B39F40A2661F0232B242B252BEC
S113262021F408950A2609F4A140A6958FEF811D8F
S1132630811D089597F99F6780E870E060E0089530
S11326409FEF80EC089500240A94161617061806C6
S11326500906089500240A941216130614060506A2
S113266008950C9420130E948913D8F3E894E0E0B1
S1132670BB279F57F0F02AED3FE049EC06C0EE0F70
S1132680BB0F661F771F881F28F0B23A62077307D3
S1132690840728F0B25A620B730B840BE3959A9566
S11326A072F7803830F49A95BB0F661F771F881F26
S11326B0D2F790480C941B15092E0394000C11F4C6
S11326C0882352F0BB0F40F4BF2B11F460FF04C009
S11326D06F5F7F4F8F4F9F4F0895EF93E0FF07C0C9
S11326E0A2EA2AED3FE049EC5FEB0E94F6110E945A
S11326F05C130F90039401FC9058ECE7F0E00C9409
S1132700551557FD9058440F551F59F05F3F71F010
S11327104795880F97FB991F61F09F3F79F0879544
S11327200895121613061406551FF2CF4695F1DFCD
S113273008C0161617061806991FF1CF869571055D
S1132740610508940895E894BB2766277727CB0191
S113275097F908950E94F61208F48FEF08950E94E5
S1132760C2130C945C130E94231338F00E942A13A2
S113277020F0952311F00C941A130C9420131124B7
S11327800C94A4130E94811370F3959FC1F3950FC9
S113279050E0551F629FF001729FBB27F00DB11DE1
S11327A0639FAA27F00DB11DAA1F649F6627B00D71
S11327B0A11D661F829F2227B00DA11D621F739F5A
S11327C0B00DA11D621F839FA00D611D221F749F68
S11327D03327A00D611D231F849F600D211D822FAF
S11327E0762F6A2F11249F5750409AF0F1F08823D6
S11327F04AF0EE0FFF1FBB1F661F771F881F915003
S11328005040A9F79E3F510580F00C941A130C9484
S1132810A4135F3FE4F3983ED4F3869577956795C8
S1132820B795F795E7959F5FC1F7FE2B880F911D2C
S11328309695879597F90895FA01EE0FFF1F309644
S113284021053105A1F16115710561F48038BFE3FB
S11328509B0749F168949038810561F08038BFEF97
S11328609B0741F099234AF5FF3FE1053105210516
S113287019F1E8940894E795D901AA2329F4AB2F18
S1132880BE2FF85FD0F310C0FF5F70F4A695E0F799
S1132890F73950F019F0FF3A38F49F779F930DD031
S11328A00F9007FC9058089546F00C94201360E0B4
S11328B070E080E89FE308954FE79F775F934F931D
S11328C03F932F930E94B3152F913F914F915F91A6
S11328D00E94AF130C94E7149F930E9433130F903C
S11328E007FCEE5F0C946D1319F416F40C9420138A
S11328F00C9419150E948913B8F39923C9F3B6F3FC
S11329009F57550B87FF0E9427150024A0E640EA35
S1132910900180585695979528F4805C660F771F30
S1132920881F20F026173707480730F4621B730B03
S1132930840B202931294A2BA69517940794202526
S113294031254A2758F7660F771F881F20F026176E
S11329503707480730F4620B730B840B200D311DCD
S1132960411DA09581F7B901842F9158880F969540
S113297087950895DF93D92F0E943313E695D79551
S11329802AED3FE049E45FE3B33A62077307840743
S11329909507D7953AF0A2EA49EC90680E94F6119F
S11329A00E945C13EAE9F0E00E945515DD0F13F074
S11329B00E946915DD0F0BF49058DF91089529F4F6
S11329C016F00C941A130C94A3130C9420130E9465
S11329D08913A8F39638A0F707F80F92E8942BE32D
S11329E03AEA48EB5FE70E94C5130F920F920F92E9
S11329F04DB75EB70F920E94FB15EDEBF0E00E941D
S1132A002E154F915F91EF91FF91E595EE1FFF1FFA
S1132A1049F0FE57E0684427EE0F441FFA95E1F7AA
S1132A204195550B0E9475150F9007FE0C9469157E
S1132A3008959F3F31F0915020F4879577956795DD
S1132A40B795880F911D9695879597F9089591509C
S1132A505040660F771F881FD2F70895DF93CF93F6
S1132A601F930F93FF92EF92DF927B018C01689486
S1132A7006C0DA2EEF010E94C213FE01E894A5916C
S1132A802591359145915591A6F3EF010E94F611D8
S1132A90FE019701A801DA9469F7DF90EF90FF90A7
S1132AA00F911F91CF91DF9108959F938F937F93FF
S1132AB06F93FF93EF939B01AC010E94AF13EF91CF
S1132AC0FF910E942E152F913F914F915F910C948D
S1132AD0AF139B01AC0160E070E080E89FE30C94CD
S1132AE055120C941A130C9419150E948913D8F3D7
S1132AF09923C9F3940F511DA3F39150504094F0BE
S1132B0059F0882332F0660F771F881F9150504088
S1132B10C1F79E3F51052CF7880F911D9695879517
S1132B2097F908955F3FACF0983E9CF0BB278695DB
S1132B3077956795B79508F4B1609395C1F7BB0F86
S1132B4058F711F460FFE8CF6F5F7F4F8F4F9F4FAF
S1132B50E3CF0C94A41316F00C9419150C942013C1
S1132B6068940C941A130E948913A8F39923C1F34F
S1132B70AEF3DF93CF931F930F93FF92C92FDD27FB
S1132B8088232AF02197660F771F881FDAF720E041
S1132B9030E040E85FEB9FE3883920F0803E38F076
S1132BA021968F770E94DF11E5EEF0E004C00E94C9
S1132BB0DF11E2E1F1E00E942E158B01BE01EC0170
S1132BC0FB2E6F5771097595771F880B990B0E941F
S1132BD0311628E132E741E35FE30E94C213AF2DCF
S1132BE09801AE01FF900F911F91CF91DF910E9448
S1132BF0F6110C945C13FA01DC01AA0FBB1F9B01B4
S1132C00AC01BF5728F4222733274427507820C02B
S1132C10B75190F4AB2F0024469537952795011CA6
S1132C20A395D2F3002071F0220F331F441FB395F4
S1132C30DAF30ED00C94DE1161307105A0E88A0736
S1132C40B94630F49B01AC01662777278827907832
S1132C50309621F020833183428353830895E8948E
S1132C6009C097FB3EF490958095709561957F4FD0
S1132C708F4F9F4F9923A9F0F92F96E9BB2793957E
S1132C80F695879577956795B795F111F8CFFAF48E
S1132C90BB0F11F460FF1BC06F5F7F4F8F4F9F4FBF
S1132CA016C0882311F096E911C0772321F09EE81D
S1132CB0872F762F05C0662371F096E8862F70E083
S1132CC060E02AF09A95660F771F881FDAF7880F5D
S1132CD09695879597F90895EF920F931F93CF9345
S1132CE0DF93E80147FD02C034E001C034E1042E63
S1132CF0000C550B57FF03C0519541955109E32E24
S1132D00022F242FAE010E942118CE01DF91CF9112
S1132D101F910F91EF900895A0E0B0E0E2E9F6E191
S1132D200C94671AEC016B016115710519F0FB0134
S1132D30918380837E01FFEFEF1AFF0A0881802FC1
S1132D4090E00E94DE17892B11F0E701F3CF0D32DA
S1132D5039F47E0182E0E80EF11C098111E008C01B
S1132D600B3229F47E0192E0E90EF11C098110E096
S1132D70E701219743E050E068E471E0CE010E944E
S1132D80E717892BC1F4239645E050E063E471E032
S1132D90CE010E94E717892B09F42596C114D104AA
S1132DA019F0F601D183C0831111F6C060E070E020
S1132DB080E89FE7FAC043E050E060E471E0CE01B0
S1132DC00E94E717892B59F4C114D10409F4E9C00E
S1132DD0F2E0EF0EF11CF601F182E082E2C020E0A5
S1132DE030E0A901C0E0D0E0F70180EDA82EA00EEC
S1132DF089E08A1530F1912F9260B92E812F887065
S1132E0012FF04C0811124C0219622C08111219790
S1132E10A5E0B0E00E94561ADC01CB01880F991F8F
S1132E20AA1FBB1F9C01AD012A0D311D411D511D5F
S1132E30283989E93807480789E1580748F01660B6
S1132E4006C09EEFA9120AC013FD40C01860B12E3F
S1132E508FEFE81AF80A00811B2DC6CF802F8F7DD3
S1132E608534A1F580818D3211F4106106C08B3256
S1132E7021F0319661E070E004C08181329662E015
S1132E8070E080538A3018F0E61BF70B1FC060E037
S1132E9070E060389CE079075CF4DB01AA0FBB1F8B
S1132EA0AA0FBB1F6A0F7B1F660F771F680F711D68
S1132EB03196DF0111978C9180538A3050F314FFBF
S1132EC003C0719561957109C60FD71F11FF08C022
S1132ED0C114D10429F0CF010197F60191838083B5
S1132EE0CA01B9010E942F16212F2370233019F033
S1132EF04B015C0106C04B015C01B7FAB094B7F812
S1132F00B09420E030E0A901C501B4010E944B1245
S1132F10882309F43EC0D7FF06C0D195C195D109D5
S1132F200FE511E002C007E711E06801F8E1CF1AEC
S1132F30D10890E2E92EF12CCE15DF0574F0F801EA
S1132F402591359145915491C501B4010E94AF1367
S1132F504B015C01CE19DF09EFCF04501109F59440
S1132F60E7940C151D0541F78A2D880F8B2D881FBA
S1132F708F3F49F020E030E0A901C501B4010E946F
S1132F804B12811106C082E290E09093F10380938A
S1132F90F003C501B40109C060E070E080E89FEF70
S1132FA004C060E070E080EC9FE7CDB7DEB7ECE0F2
S1132FB00C94831A662777270C948C1691110C9421
S1132FC0531A803219F089508550C8F70895FB01CF
S1132FD0DC014150504088F08D9181341CF08B35D8
S1132FE00CF4805E659161341CF06B350CF4605E0A
S1132FF0861B611171F3990B0895881BFCCFFB01AB
S1133000DC010D900020E9F7119701900D9200204A
S1133010E1F70895FC0101900020E9F7809590956F
S11330208E0F9F1F0895FB01DC014150504030F08A
S11330308D910190801919F40020B9F7881B990B20
S11330400895A9E0B0E0E7E2F8E10C94671A6A0198
S1133050122FB02E2BE3201720F0FF24F394F00E50
S113306002C02CE3F22E0F2D27E0AE014F5F5F4F1D
S11330700E947B19BC014981842F8970813031F011
S1133080E1FC06C0E0FE06C090E205C09DE203C07C
S11330909BE201C090E05E2D507143FF3CC0911152
S11330A002C083E001C084E0811718F4212F281B9B
S11330B001C020E051110BC0F601822F30E28823B9
S11330C019F031938150FBCFC20ED11C20E099231B
S11330D029F0D6019C93F60131966F01C60103963F
S11330E0E2FE0AC03EE4D6013C9341E411964C93BF
S11330F0119712963C9306C03EE6F601308341E6F2
S113310041833283FC01322F40E2332309F442C06D
S113311041933150FACF42FF44C0911102C083E081
S113312001C084E0811718F4212F281B01C020E07E
S113313051110BC0F601822F30E2882319F031932C
S11331408150FBCFC20ED11C20E0992329F0D60177
S11331509C93F60131966F01C6010396E2FE0BC003
S113316039E4D6013C933EE411963C93119736E43E
S113317012963C9307C039E6F60130833EE631836C
S113318036E63283FC01322F40E2332319F04193B7
S11331903150FBCFFC01E20FF11D10828EEF9FEF47
S11331A0A6C021E030E0911102C020E030E0161604
S11331B017061CF4FB01319602C0E1E0F0E02E0F8B
S11331C03F1FBB2021F0EB2DF0E0319602C0E0E080
S11331D0F0E02E0F3F1FE12FF0E02E173F071CF405
S11331E0121B212F01C020E08E2D887159F4F601A5
S11331F0822F30E2882319F031938150FBCFC20E25
S1133200D11C20E0992329F0D6019C93F601319634
S11332106F0151110BC0F601822F90E3882319F03E
S113322091938150FBCFC20ED11C20E00F2D060FCD
S11332309A81342F307144FF03C0913309F4015053
S1133240101624F4093018F008E001C001E0AB01C5
S113325077FF02C040E050E0FB01E41BF50BA1E066
S1133260B0E0AC0FBD1FEA0FFB1F8EE2A82E4B018E
S1133270801A91080B2D10E01195019511094F3F0B
S1133280BFEF5B0721F4D601AC9211966D01641770
S113329075072CF08416950614F4818101C080E32F
S11332A0415051093196D60111967D0140175107BD
S11332B024F0D6018C936701E2CF6417750739F4C3
S11332C0963320F4953319F4311101C081E3F601EA
S11332D08083F701822F90E2882319F09193815023
S11332E0FBCFF701E20FF11D108280E090E02996F8
S11332F0ECE00C94831A283008F027E03327DA0135
S1133300990F311D87FD916000966105710539F4AF
S113331032602E5F3D9330E32A95E1F708959F3F95
S113332030F080387105610509F03C5F3C5F3D93E6
S1133330913008F08068911DDF93CF931F930F9312
S1133340FF92EF92192F987F9695E92F969596956F
S1133350E90FFF27EB52FE4F99273327EE24FF2472
S1133360A701E70105900894079428F4360FE71E97
S1133370F81E491F511D660F771F881F991F069459
S1133380A1F70590079428F4E70EF81E491F561F6D
S1133390C11D770F881F991F661F0694A1F705901A
S11333A0079428F4F80E491F561FC71FD11D880F14
S11333B0991F661F771F0694A1F70590079420F4C0
S11333C0490F561FC71FD81F990F661F771F881FE5
S11333D00694A9F784911095177041F0D695C79576
S11333E057954795F794E7941A95C1F7EBE7F1E001
S11333F068941590159135916591959105907FE2AA
S11334007395E118F10A430B560BC90BD009C0F7A9
S1133410E10CF11E431F561FC91FD01D7EF47033EB
S113342011F48A95E6CFE894015030F0080F0AF4BD
S11334300027021708F4202F2395022F7A3328F04F
S113344079E37D932A95E9F710C07D932A9589F64F
S1133450069497956795379517951794E118F10A8F
S1133460430B560BC90BD00998F023957E917395A5
S11334707A3308F070E37C932013B8F77E9170617F
S11334807D9330F0839571E37D9370E32A95E1F7A2
S11334901124EF90FF900F911F91CF91DF91992705
S11334A087FD909508959927882708950E94981A72
S11334B0A59F900DB49F900DA49F800D911D112484
S11334C008952F923F924F925F926F927F928F92C4
S11334D09F92AF92BF92CF92DF92EF92FF920F939F
S11334E01F93CF93DF93CDB7DEB7CA1BDB0B0FB6A9
S11334F0F894DEBF0FBECDBF09942A883988488866
S11335005F846E847D848C849B84AA84B984C884FB
S1133510DF80EE80FD800C811B81AA81B981CE0FF2
S1133520D11D0FB6F894DEBF0FBECDBFED010895D7
S1133530A29FB001B39FC001A39F700D811D1124F0
S1133540911DB29F700D811D1124911D0895F89451
S1053550FFCFA7
S11335523738392B533435362D433132332A4430FC
S11335622E3D2F4173696E2800636F7328007461C6
S11335726E2800737172742800434153494F2046E8
S113358278004C6F6164696E672E2E2E005B53487F
S11335924946545D00202020004D313A20504845D0
S11335A25020544F414E00313A282020323A2920EB
S11335B220333A5E2020343A76004D323A204C557C
S11335C24F4E47204749414300313A73696E2820E0
S11335D2323A636F732820333A74616E28004D3394
S11335E23A205054204241432032004E68617020F8
S11335F261203D20003D202020202020202020206A
S1133602202020202020202020002020004E68613D
S1133612702062203D20004E6861702063203D20AE
S1133622004C6F693A20612070686169206B68619F
S11336326320302100505420566F206E67686965FC
S11336426D21004E676869656D206B65703A00787C
S1133652203D200032206E676869656D20706861C4
S11336626E20626965743A007831203D2000783218
S1133672203D2000000000000000002F0000000791
S1133682000700147F147F14242A7F2A12231308AC
S1133692646236495522500005030000001C224191
S11336A2000041221C0014083E081408083E0808C1
S11336B2005030000008080808080060600000207C
S11336C2100804023E5149453E00427F40004261D7
S11336D25149462141454B311814127F1027454563
S11336E245393C4A4949300171090503364949497A
S11336F236064949291E00363600000056360000B7
S1133702081422410014141414140041221408024F
S113371201510906324979413E7E1111117E7F49D8
S11337224949363E414141227F4141221C7F494958
S113373249417F090909013E4149497A7F0808083C
S11337427F00417F41002040413F017F0814224114
S11337527F404040407F020C027F7F0408107F3E7E
S11337624141413E7F090909063E4151215E7F09DB
S1133772192946464949493101017F01013F404027
S1133782403F1F2040201F3F4038403F631408142D
S11337926307087008076151494543007F414100AE
S11337A202040810200041417F0004020102044087
S11337B240404040000102040020545454787F48A1
S11337C24444383844444420384444487F385454A8
S11337D25418087E0901020C5252523E7F08040416
S11337E27800447D40002040443D007F102844007E
S11337F200417F40007C041804787C080404783873
S1133802444444387C14141408081414187C7C08A6
S11338120404084854545420043F4440203C40408B
S1133822207C1C2040201C3C4030403C4428102872
S10F3832440C5050503C4464544C44007E
S9030000FC
